:020000040800F2
:1000000028FE0120290300083103000833030008FB
:10001000350300083703000839030008000000001A
:100020000000000000000000000000007102000855
:100030003D03000800000000C5020008F91A00088E
:100040004303000843030008430300084303000878
:100050004303000843030008430300084303000868
:100060004303000843030008430300084303000858
:100070004303000843030008430300084303000848
:100080004303000843030008430300084303000838
:100090004303000843030008430300084303000828
:1000A0004303000843030008430300084303000818
:1000B000951B000843030008511C00084303000877
:1000C00043030008430300084303000843030008F8
:1000D0004303000843030008430300088127000886
:1000E00043030008430300084303000843030008D8
:1000F00043030008430300084303000843030008C8
:1001000043030008430300084303000843030008B7
:1001100043030008430300084303000843030008A7
:1001200043030008D50D00084303000843030008FB
:100130004303000843030008430300084303000887
:100140004303000843030008430300084303000877
:100150004303000843030008430300084303000867
:100160004303000843030008430300084303000857
:100170004303000843030008430300084303000847
:10018000430300084303000800F002F800F060F8A1
:100190000AA090E8000C82448344AAF10107DA45E2
:1001A00001D100F055F8AFF2090EBAE80F0013F0D4
:1001B000010F18BFFB1A43F001031847A8580000AD
:1001C000C858000010F8013B0A4413F0030408BFAC
:1001D00010F8014B1D1108BF10F8015B641E05D01B
:1001E00010F8016B641E01F8016BF9D1002D15D0D8
:1001F00010F8014B03F00C030C2BA1EB04040ABF15
:1002000010F8013BA4EB8314A4EB032405F10103D4
:1002100014F8016B5B1E01F8016BF9D5914238BFF0
:1002200010F8013BD1D3704700230024002500269D
:10023000103A28BF78C1FBD8520728BF30C148BF49
:100240000B6070471FB505F007FC1FBD10B510BD52
:1002500000F05AF91146FFF7F5FF02F067FF00F0D2
:1002600078F903B4FFF7F2FF03BC00F07BF900005C
:100270002A4B19680868B0E8F04F80F30988BFF38B
:100280006F8F4FF0000080F311887047000000006E
:1002900006480068006880F3088862B661B6BFF35C
:1002A0004F8FBFF36F8F00DF00BF00BF08ED00E08E
:1002B000DFF80C00016841F470010160704700BF75
:1002C00088ED00E0EFF30980BFF36F8F134B1A68DE
:1002D0001EF0100F08BF20ED108A20E9F04F1060CB
:1002E00008B44FF0500080F31188BFF34F8FBFF375
:1002F0006F8F04F065F94FF0000080F3118808BC9F
:1003000019680868B0E8F04F1EF0100F08BFB0EC95
:10031000108A80F30988BFF36F8F704700000020B8
:10032000EFF30580704700000948804709480047FF
:10033000FEE7FEE7FEE7FEE7FEE7FEE7FEE7FEE795
:10034000FEE7FEE704480549054A064B70470000F2
:100350002D1B00088901000828F8012028FE012033
:1003600028FA012028FA0120032A40F2308010F0F8
:10037000030C00F0158011F8013BBCF1020F624440
:1003800098BF11F801CB00F8013B38BF11F8013BD1
:10039000A2F1040298BF00F801CB38BF00F8013B7E
:1003A00011F0030300F03080083AC0F0088051F8E3
:1003B000043B083A51F804CBA0E80810F5E7121DF9
:1003C0005CBF51F8043B40F8043BAFF30080D20718
:1003D00024BF11F8013B11F801CB48BF11F8012BE4
:1003E00024BF00F8013B00F801CB48BF00F8012B07
:1003F000704702F0FF0343EA032242EA024200F0A0
:1004000037B870477047704710B5203AC0F00B807E
:10041000B1E81850203AA0E81850B1E81850A0E808
:100420001850BFF4F5AF5FEA027C24BFB1E8185062
:10043000A0E8185044BF18C918C0BDE810405FEAD2
:10044000827C24BF51F8043B40F8043B08BF70474E
:10045000D20728BF31F8023B48BF11F8012B28BF53
:1004600020F8023B48BF00F8012B70474FF0000214
:100470000429C0F0128010F0030C00F01B80CCF1B6
:10048000040CBCF1020F18BF00F8012BA8BF20F824
:10049000022BA1EB0C0100F00DB85FEAC17C24BF78
:1004A00000F8012B00F8012B48BF00F8012B704722
:1004B0004FF0000200B5134694469646203922BFFD
:1004C000A0E80C50A0E80C50B1F12001BFF4F7AF48
:1004D000090728BFA0E80C5048BF0CC05DF804EB2A
:1004E000890028BF40F8042B08BF704748BF20F898
:1004F000022B11F0804F18BF00F8012B704700004D
:1005000000487047C8F701207546FFF7F9FFAE466F
:1005100005006946534620F00700854618B020B50F
:10052000FFF710FFBDE820404FF000064FF0000736
:100530004FF000084FF0000B21F00701AC46ACE88B
:10054000C009ACE8C009ACE8C009ACE8C0098D46F8
:10055000704710B50446AFF300802046BDE8104058
:10056000FFF77FBE01491820ABBEFEE72600020060
:10057000704721B1826842F00102826003E0826824
:1005800022F00102826070470021084A1168084A7F
:100590001140D0E900231A4383681A43C3681A4301
:1005A0001143044AC2F804137047000004230140B9
:1005B000E030FCFF0020014000B58BB00020079028
:1005C00008904FF48040099000200A9007A8FFF798
:1005D000DBFF002001908DF808008DF809004FF036
:1005E00080500390401004900020059001208DF869
:1005F000180001A90E4800F035F801A90D4800F0D7
:1006000031F8032301220B21094800F055F8032398
:1006100001220F21074800F04FF80121044800F0A3
:1006200016F80121034800F012F80BB000BD0000DD
:10063000002201400021014021B1826842F4807211
:10064000826003E0826822F480728260704721B188
:10065000826842F40072826003E0826822F40072D1
:100660008260704730B50246002000235068104C6D
:1006700020400D790C6844EA0524204350609068BE
:100680000C4C2040D1E903542C438D682C434D7908
:1006900044EA450420439060D06A20F470000C7D49
:1006A000641EE4B2234340EA0350D06230BD000030
:1006B000FFFEFFFCFDF7FFC0F0B504460D4600202D
:1006C0000021092D11DDE068A5F10A0606EB4607B9
:1006D000072606FA07F18843A5F10A0606EB460647
:1006E00003FA06F10843E0600CE0206905EB4507DA
:1006F000072606FA07F1884305EB450603FA06F1DB
:1007000008432061072A0FDA606B561E06EB860746
:100710001F2606FA07F18843561E06EB860605FAE1
:1007200006F10843606322E00D2A0FDA206BD61F22
:1007300006EB86071F2606FA07F18843D61F06EB4D
:10074000860605FA06F10843206310E0E06AA2F18C
:100750000D0606EB86071F2606FA07F18843A2F16D
:100760000D0606EB860605FA06F10843E062F0BDC9
:1007700000240025002600BF00235A1E1946F24817
:10078000006804F0D7F8002600244FF48041EF48B9
:1007900000F0FFFDCAE12046641CED49085C2328F7
:1007A0001AD04B287ED050287DD12046641C085C8E
:1007B0003138E849087000250BE0E548405DE5491F
:1007C0000978C1EBC10202EB4111E34A11444855DB
:1007D0006D1C272DF1DBA8E12046641CDC49085C78
:1007E00030380A287ED2DFE800F0FD0541619FD055
:1007F000FEFBFAF931222046641CD549085C3038EA
:10080000D6490A542046641CD149085C303800EBB4
:1008100080004000D2490860084602682046641CF7
:10082000CB49085C30381044CD490860C848005DA9
:10083000582803D101200872A41C16E00020C849E2
:1008400008722046641CC249085C303800EB800006
:100850004000C3494860084642682046641CBC49C1
:10086000085C30381044BE49486056E132222046C8
:10087000641CB749085C3038B8490A542046641CE7
:10088000B349085C303800EB80004000B54908608F
:10089000084602682046641CAD49085C30381044A4
:1008A000B04901E03BE13CE1086036E133222046FB
:1008B000641CA749085C3038A8490A542046641CC7
:1008C000A349085C303800EB80004000A64908606E
:1008D000084602682046641C9D49085C3038104474
:1008E000A14900E015E108609948005D582803D14E
:1008F00001200872A41C16E000209B4908722046C3
:10090000641C9349085C303800EB80004000964935
:100910004860084642682046641C8D49085C3038AF
:10092000104491494860F8E034222046641C88490C
:10093000085C303889490A542046641C8449085CA4
:10094000303800EB800040008849086008460268A3
:100950002046641C7E49085C303810448349086096
:100960002046641C7A49085C303800EB8000400067
:100970007E494860084642682046641C7449085C09
:100980003038104479494860C7E035222046641C5D
:100990006F49085C303871490A546D48005D582829
:1009A00004D1012072490871A41C16E0002070498E
:1009B00008712046641C6649085C303800EB8000F2
:1009C00040006B490860084602682046641C604984
:1009D000085C30381044664908609EE058E01AE030
:1009E0000DE000E08CE036222046641C5849085C8B
:1009F00030385A490A5401205E4908718DE0372287
:100A00002046641C5249085C303854490A5401207D
:100A10005849087181E038222046641C4C49085C22
:100A200030384E490A544A48005D582804D1012004
:100A300051490872A41C16E000204F490872204654
:100A4000641C4349085C303800EB800040004A4990
:100A50000860084602682046641C3D49085C30383E
:100A60001044454908602046641C3949085C303808
:100A700000EB800040004049486008462146641C65
:100A800042683348405C303810443B49486044E099
:100A900039222046641C2E49085C30382F490A54FC
:100AA0002046641C2A49085C303800EB8000400076
:100AB00032494860084642682046641C2449085C64
:100AC000303810442D4948602046641C2049085C99
:100AD000303800EB80004000284988600846826872
:100AE0002046641C1A49085C303810442349886049
:100AF0002046641C1649085C3038204908600CE028
:100B000030222046641C1249085C303813490A54CC
:100B100003E001201A49087000BF00BF05E001266C
:100B200003E001201649087000BF00BF002E3FF40B
:100B300032AE002503E00020054948556D1C272DE5
:100B4000BFF61AAEF7E70000B0000020000C02402C
:100B5000C4360120800000201C370120A80000209E
:100B6000EC36012084000020F836012088000020A7
:100B70009000002098000020043701201037012049
:100B8000810000201FB500F0E1FD00F075FB00F0D2
:100B9000D0FC4FF4165000900020ADF80400ADF8E2
:100BA0000600ADF80800ADF80C000C20ADF80A0006
:100BB0006946074801F08EFE0121054801F02FFE2D
:100BC000012240F22551024801F05FFE1FBD0000E6
:100BD0000048004010B500F077FC00F069FD10BD42
:100BE00010B500220421012003F078FE04490860BA
:100BF0000846006808B9012010BD0020FCE700008D
:100C0000CC00002010B503220021012003F066FE75
:100C10001349086003220021012003F05FFE1149FF
:100C2000086003220021012003F058FE0E490860ED
:100C300003220021012003F051FE0C4908600848FE
:100C4000006840B10848006828B10846006810B143
:100C50000448006808B9012010BD0020FCE700002E
:100C6000B0000020D8000020F8000020E0000020A4
:100C70001CB51D48012100238222CDE900101BA1D3
:100C80001F4804F08BF91F490860084600680128D6
:100C900002D04FF0FF301CBD1B48012100238222EF
:100CA000CDE9001019A11C4804F078F91549086035
:100CB00008460068012802D04FF0FF30EBE71748E4
:100CC000012100238222CDE9001015A1154804F06E
:100CD00065F90C49086008460068012802D04FF009
:100CE000FF30D8E70020D6E7BC00002074426C75C6
:100CF00065746F6F7468526563656976650000009E
:100D000071070008D4000020C0000020744566660A
:100D10006563747300000000ED100008C800002037
:100D2000745246004918000839B1084A1268012374
:100D300083401A43054B1A6006E0044A12680123F7
:100D400083409A43014B1A607047000000740040D2
:100D500010B504200649086000204860C8601020D3
:100D600000F01EF80249002000F01AF810BD000043
:100D7000E037012041B1094A12684FF480538340A3
:100D80001A43064B1A6007E0044A12684FF4805376
:100D900083409A43014B1A60704700000074004082
:100DA00030B5002200230A4C226840F6FE748440CD
:100DB000A243D1E900452C438D682C43CD6844EA19
:100DC000050303FA00F42243014C226030BD000009
:100DD000007400401CB50121082000F087FC4FF48E
:100DE0008040009000208DF806008DF8070001205B
:100DF0008DF8040000208DF8050069460E4800F0CB
:100E00005BFA0E490E4800F0F5F898B10B490C4812
:100E100000F01EF80B490C48006804F009F8094876
:100E2000006838B14FF0805008490860BFF34F8F19
:100E3000BFF36F8F1CBD0000000C02400088001043
:100E400028640240DC000020D800002004ED00E00F
:100E50000246094B9A4201D2084801E00648103880
:100E600001F000531BB1064B0B40C36002E0044B82
:100E70000B40836070470000106402400060024035
:100E80007D0F7D0F21B1026842F00102026003E094
:100E9000026822F00102026070470000016821F040
:100EA000010101600021016041608160C160016158
:100EB000212141614A49884204D13D21484A103AE2
:100EC00091608CE046491831884205D14FF4746135
:100ED000434A103A916082E041493031884205D15D
:100EE0004FF474113E4A103A916078E03C49483121
:100EF000884205D14FF07461394A103A91606EE032
:100F000037496031884204D13649354A103AD160B8
:100F100065E033497831884204D13349304A103A88
:100F2000D1605CE02E499031884204D12F492C4A8F
:100F3000103AD16053E02A49A831884205D14FF0D8
:100F40003D51274A103AD16049E02949884204D1ED
:100F50003D21274A083A116041E02549183188426D
:100F600005D14FF47461224A083A116037E02049F4
:100F70003031884205D14FF474111D4A083A11608E
:100F80002DE01B494831884205D14FF07461184A61
:100F9000083A116023E016496031884204D11149B2
:100FA000134A121F11601AE011497831884204D1A6
:100FB0000D490F4A121F116011E00D49903188420E
:100FC00004D10A490A4A121F116008E00849A831F1
:100FD000884204D14FF03D51054A121F11607047FD
:100FE000106002403D000020400F002000003D2026
:100FF0001064024070B50246002000240025124E05
:10100000B24201D2114B01E00F4B103B104E0E408B
:1010100036B11E2606EAD124166806EA040502E067
:10102000566906F0800501F000560EB15C6800E0DC
:101030001C68084E344004EA010616B10DB10120C7
:1010400000E0002070BD000010640240006002401B
:101050003C0F3C0F7D0F7D0F10B501F080034BB1AD
:1010600022B1436943F08003436103E0436923F005
:101070008003436180290BD02AB1036801F01E046C
:101080002343036004E0036801F01E04A3430360EC
:1010900010BD000010B500220268134B1A40CC6846
:1010A0000B6823434C6923438C692343CC69234356
:1010B0000C6A23434C6A23438C6A23434C6B2343BF
:1010C0008C6B23431A430260426922F00702D1E984
:1010D0000B3423431A4342610B6943604B688360BE
:1010E0008B68C36010BD00003F801CF000F0FAF96F
:1010F00000F0EAFA00BF00231A464F494F48006843
:1011000003F018FC00235A1E19464D48006803F0EE
:1011100011FC4FF400514B4800F03BF94648006881
:10112000B0F5FA6F03DD4FF4FA60434908604248B6
:101130000068002802DA00203F4908604248008821
:1011400042490880424800884249088000204249BC
:10115000086031E0414840490968405C30380A285D
:1011600020D2DFE800F00506090C0F121316191C37
:101170001CE002F057FE19E001F0F6FE16E001F067
:10118000CDFC13E002F04CFE10E00FE003F05EFA3D
:101190000CE003F0C3FA09E001F010FE06E001F0F4
:1011A000F3FF03E001202E49087000BF00BF2A486A
:1011B0000068401C28490860274800680528C9DBEA
:1011C0002248B0F9000000EE900AF8EEE00AB0EE16
:1011D000600A2448D0ED000AB8EEE02AF7EE001AC3
:1011E0009FED211ADFED210A01F0BEFFBDEEC00A1E
:1011F00010EE100A00B21E4908801648B0F900002F
:1012000000EE900AF8EEE00AB0EE600A1548D0ED64
:10121000000AB8EEE02AF7EE001A9FED131ADFED90
:10122000130A01F0A1FFBDEEC00A10EE100A00B2D1
:10123000104908805FE7000064090020CC0000200E
:10124000D8000020000C024074000020780000202C
:10125000760000207A00002008010020A80000206D
:101260002D0100206809002000F07F4500000000EB
:101270007C0000207E0000201CB54FF440600090F0
:1012800002208DF8040000208DF806008DF807007C
:1012900002208DF805006946064800F00DF8072287
:1012A0000A21044800F050F807220B21014800F001
:1012B0004BF81CBD00080240F0B50A46002100238F
:1012C000002400BF3DE0012505FA01F3156805EA99
:1012D00003049C4234D105684F000326BE40B54349
:1012E000056015794E00B5400668354305601579EF
:1012F000012D02D01579022D16D185684F000326E5
:10130000BE40B543856055794E00B540866835438B
:101310008560456801268E40B543456045689679ED
:101320008E40B6B235434560C5684F000326BE40C7
:10133000B543C560D5794E00B540C6683543C56034
:10134000491C1029BFD3F0BDF0B5002300244D0780
:10135000ED0E02FA05F3CE1000F1200555F82650E7
:101360004E07F70E0F26BE40B543CF1000F1200602
:1013700046F82750CE1000F1200555F8265045EAD2
:101380000304CE1000F1200545F82640F0BD01838E
:10139000704742694A4042617047000000B58FB013
:1013A0002248FFF77BFD21481830FFF777FD00202A
:1013B000039001200490002005904FF48060069077
:1013C00040000790C00008908011099040020A90E8
:1013D00000200B9001200C9000200D900E904FF0FB
:1013E00000700090124802901248019069460F4820
:1013F0001830FFF74FFE4FF0806000900E480290CB
:101400000E48019069460948FFF744FE012107484C
:101410001830FFF737FD012210210448FFF71CFEAA
:1014200001210248FFF72EFD0FB000BD28640240E5
:10143000760000204C210140740000204C22014025
:101440001CB52220009003208DF8040000208DF8A8
:10145000070069460148FFF72FFF1CBD0008024046
:1014600010B50121022000F051F90121042000F003
:101470003DF90121880500F039F90121880200F0C9
:1014800055F90121480200F051F910BD1CB50121A8
:10149000102000F02BF98020009000208DF806002D
:1014A0008DF8070001208DF8040000208DF805005C
:1014B00069460448FFF700FF80210248FFF767FFF5
:1014C0001CBD00000010024010B5FFF7C9FFFFF778
:1014D000B7FF00F073FB00F01BF8FFF75FFFFFF7AB
:1014E0006BF810BD10B501210748FFF7A5F80121E1
:1014F0000548FFF73EF801210448FFF79DF8012158
:101500000248FFF736F810BD0021014000220140DB
:1015100008B539208DF8000006208DF80100002064
:101520008DF8020001208DF80300684600F012F8E3
:1015300008BD08B527208DF800000A208DF80100AD
:1015400000208DF8020001208DF80300684600F0AD
:1015500001F808BD70B5002100230F22C4781CB328
:10156000174C246804F4E064C4F5E064C4F3072174
:10157000C1F10404E3B20A4144789C40E1B28478AA
:10158000144021430C07210E0E4C05786155047858
:1015900004F01F050124AC4005786D11AD0005F184
:1015A000E025C5F8004109E0047804F01F05012496
:1015B000AC40054D0678761145F8264070BD000018
:1015C0000CED00E000E400E080E100E002490143AE
:1015D000024A1160704700000000FA050CED00E0BF
:1015E00000B58FB01F48FFF759FC1E481830FFF7B1
:1015F00055FC4FF0606000901B4801901B48029022
:101600004020039001200490002005904FF480605A
:10161000069040000790C000089080110990400299
:101620000A9000200B9001200C9000200D900E904D
:1016300069460C48FFF72EFD0B480C3001900C4812
:101640000290694607481830FFF724FD012105483C
:10165000FFF718FC012103481830FFF713FC0FB007
:1016600000BD000088600240087400407C0000203B
:101670007E0000201CB53020009003208DF804006F
:1016800000208DF8070069460148FFF715FE1CBDD4
:101690000000024010B50121034800F027F80121A5
:1016A000024800F033F810BD0100200010000020B7
:1016B00010B5FFF7EFFFFFF7DDFF00F0DFFAFFF7F0
:1016C00047FBFFF78DFF10BD10B501210020FFF78C
:1016D0002BFB01211020FFF727FB01210020FFF742
:1016E00049FB01211020FFF745FB10BD29B1064A37
:1016F00012680243044B1A6004E0034A12688243F2
:10170000014B1A60704700003038024029B1064A88
:1017100012680243044B1A6004E0034A12688243D1
:10172000014B1A60704700004038024029B1064A58
:1017300012680243044B1A6004E0034A12688243B1
:10174000014B1A60704700004438024010B5012177
:101750008804FFF7DBFF01210420FFF7C7FF10BD5E
:10176000F0B5002100220024022500260223324F7A
:101770003F6807F00C0121B1042905D0082937D1B1
:1017800005E02E4F076036E02D4F076033E02A4F0B
:101790003F1F3F68C7F38056274F3F1F3F6807F042
:1017A0003F036EB1264FB7FBF3F7DFF88CC0ACF107
:1017B000040CDCF800C0CCF3881C07FB0CF40CE034
:1017C0001E4FB7FBF3F7DFF870C0ACF1040CDCF888
:1017D00000C0CCF3881C07FB0CF4174F3F1F3F6879
:1017E000C7F301477F1C7D00B4FBF5F7076002E0FB
:1017F000124F076000BF00BF0F4F3F6807F0F001B6
:101800000909104F7A5C0768D74047600A4F3F6864
:1018100007F4E051890A0B4F7A5C4768D74087602C
:10182000054F3F6807F46041490B064F7A5C4768F3
:10183000D740C760F0BD000008380240007A030AB4
:1018400000127A006C0900201CB5002001900024D1
:10185000009000BF7021072000F07EFD00BF00BF98
:1018600000235A1E19461F48006803F063F84FF41E
:1018700000411D48FFF78DFD00F05FFB0028EFD011
:1018800000200090002404E0002001A90855601CFD
:10189000C4B2042CF8DB01A800F060FB00BF70218B
:1018A000072000F059FD00BF00240CE001A8005DF6
:1018B0003038BDF8001001EB810100EB410080B22F
:1018C0000090601CC4B2042CF0DBBDF800000028BE
:1018D000C6DD00231A4669460448006803F058F93B
:1018E000BEE70000E0000020000C0240CC00002019
:1018F00010B501210220FFF7F9FE01210803FFF7CF
:1019000005FF00F075F92021322000F05BFB032178
:10191000022000F05FFC044800F04AFC034800F09D
:101920007FFC00F0EDFB10BDE4000020E90000208A
:1019300010B54FF44070FFF749FE0A2400BFFFF7CF
:101940004FF918B1201EA4F10104F8D10CB900BF61
:10195000FEE70A2400BFFFF755F918B1201EA4F1D5
:101960000104F8D10CB900BFFEE7FFF78FFDFFF7C8
:1019700009F9FFF7BDFFFFF72DF9FFF779F980B1FE
:101980000948006802F09EFC0848006802F09AFCD2
:101990000748006802F096FC0648006802F092FCD6
:1019A00001E002F0BBFD10BDBC000020C000002023
:1019B000C8000020C400002010B50022028802F4F4
:1019C00041520B884C8823438C882343CC88234383
:1019D0000C8923434C8923438C892343CC8923439B
:1019E0001A430280838B4FF2FF74234083830B8A58
:1019F000038210BD0021018041808180C18001816E
:101A000041818181C1810721018270470CB500208D
:101A1000019000903448006840F4803032490860FA
:101A200000BF3148006800F4003000900198401C6D
:101A30000190009818B90198B0F5A04FF1D12A484B
:101A4000006800F4003010B10120009001E0002097
:101A500000900098012846D123484030006840F0AB
:101A600080502149403108602048006840F44040DF
:101A70001E4908601C48083000681B49083108608E
:101A80000846006840F4004008600846006840F4DA
:101A9000A05008601648091F0860081F006840F041
:101AA0008070091F086000BF0F48006800F00070D8
:101AB0000028F9D040F205700E4908600A48083045
:101AC000006820F0030008490831086008460068F3
:101AD00040F00200086000BF03480830006800F0D2
:101AE0000C000828F8D10CBD0038024000700040FE
:101AF00008544007003C024010B500BF502080F35E
:101B00001188BFF34F8FBFF36F8F00BF03F08CFAC4
:101B100018B14FF080500449086000BF002080F3E6
:101B2000118800BF10BD000004ED00E010B515489D
:101B3000006840F47000134908601348006840F0E2
:101B400001001149086000200F49083108600E4863
:101B500000680E4908400C4908600D48091D0860DE
:101B6000081F006820F48020091F08600020064933
:101B70000C310860FFF74AFF4FF0006001498039DF
:101B8000086010BD88ED00E000380240FFFFF6FE5F
:101B90001030002410B50121880700F0A2F840B1F0
:101BA0000121880700F08EF802490348006803F01D
:101BB0003FF910BD00010020F80000200EB5684676
:101BC00000F0F4F80020ADF800004FF4EE60019052
:101BD0000020ADF80800ADF802006946034800F0A7
:101BE000A3F82021014800F096F80EBD0004004043
:101BF0001FB501210420FFF789FD1E208DF800008C
:101C000006208DF8010000208DF8020001208DF8DB
:101C100003006846FFF79EFC44F61F6002902920EF
:101C2000ADF804000020ADF80C00ADF8060001A9E5
:101C3000064800F079F801221146044800F062F8E5
:101C40000121024800F041F81FBD000000080040DB
:101C500010B50121064800F044F840B101210448C4
:101C600000F030F803490448006803F0E1F810BDC3
:101C700000080040F0000020E00000200EB568469B
:101C800000F094F84FF4EE6001900020ADF80000F1
:101C9000ADF80800ADF802006946084800F044F8C5
:101CA0002021064800F037F80121044800F00DF823
:101CB0000121034800F009F80EBD000000100040AB
:101CC00000040040CA430282704721B1028842F0FA
:101CD0000102028004E002884FF6FE731A4002807F
:101CE000704730B50246002000230024158A05EA1B
:101CF0000103958905EA010413B10CB1012000E04C
:101D0000002030BD1AB183890B43838102E08389AF
:101D10008B438381704782884FF68F731A4082808D
:101D200082880A438280704700220288184B9842BA
:101D30000ED0184B98420BD0B0F1804F08D0164B04
:101D4000984205D0154B984202D0154B984204D1C9
:101D50004FF68F731A404B881A43124B984207D0A4
:101D6000114B984204D04FF6FF431A400B891A4397
:101D700002804B68C3620B880385054B984202D0F2
:101D8000044B984201D18B7A0386012383827047EA
:101D90000000014000040140000400400008004031
:101DA000000C004000100040001400404FF0FF31D4
:101DB00041600021018001814180817270470146AC
:101DC0004FF40030081AC0F38F20704700B5024668
:101DD0001046FFF7F4FF012101FA00F002490968FB
:101DE00008430149086000BD303802402DE9F04346
:101DF00004460E461546DDE907892046FFF7DFFF5A
:101E0000C7B2002243E001209040304000B93CE0DE
:101E1000214830F817000121914008431E4921F85C
:101E20001700E0684FEA420C032101FA0CF18843E5
:101E3000510008FA01F10843E06020684FEA420CC3
:101E4000032101FA0CF18843510005FA01F108431E
:101E50002060012D01D0022D16D161680120904033
:101E600080B221EA000003FA02F189B208436060FF
:101E7000A0684FEA420C032101FA0CF1884351009B
:101E800009FA01F10843A06000BF501CC2B2102A39
:101E9000B9DBBDE8F0830000B0F701202DE9FC4379
:101EA00005460C4616461F46DDE909890CB9BDE812
:101EB000FC832846FFF78AFF3B46324621462846E8
:101EC000CDE90089FFF792FF00BFF0E72DE9FC475D
:101ED00005460E4617469846DDE90A9A0EB9BDE852
:101EE000FC872846FFF772FF00241AE00120A0407B
:101EF000304000B914E0E10805F1200050F821005D
:101F00006107CA0E0F21914088436107C90E0AFA82
:101F100001F10843E20805F1200141F8220000BF69
:101F2000641C102CE2D33B46022231462846CDE900
:101F30000089FFF75BFF00BFD1E710B500F02EF876
:101F4000044604F0400008B1012010BD00F016F96D
:101F500008B90120F9E70020F7E7000010B50446B2
:101F600040200B49088061210A4800F008FB0A481C
:101F7000037822462146074800F022FB402004490E
:101F8000891E08800E21072000F0E6F910BD000030
:101F90001A040240003001409009002010B5402092
:101FA00006490880FF21064800F0E9FA044640206F
:101FB0000249891E0880204610BD00001A04024014
:101FC0000030014070B505460C4600F079F801215B
:101FD000384800F08FFA202C00DD20240DB90120B4
:101FE00000E00020344948700846047003208870DF
:101FF0000220C87000F021F9284600F0C7F82E48EA
:102000000178112000F0A8F92B480178122000F087
:10201000A3F929480178132000F09EF92648017899
:10202000142000F099F924480178152000F094F963
:1020300021480178162000F08FF91F4A9178D07856
:1020400000F0C8F80821002000F086F93F210120A7
:1020500000F082F90321022000F07EF95F210420C4
:1020600000F07AF900211C2000F076F900BF402032
:1020700012490880E1210F4800F081FA40200F4901
:10208000891E088000BF00BF891C0880E221094822
:1020900000F075FA40200949891E088000BF00BF82
:1020A0007021072000F058F900BF00F029F8012046
:1020B00070BD000000300140900900201A04024069
:1020C0001CB50020012103460A46CDE9001040213D
:1020D0000A48FFF7E3FE0020012103460A46CDE946
:1020E000001080210548FFF7D9FE40200349183130
:1020F00008808020891C08801CBD0000000402406C
:1021000010B580200E49088000BF40200880E221E1
:102110000C4800F034FA40200949891E088000BFAD
:1021200000BF7021072000F017F900BF0B2100202D
:1021300000F012F980200249891E088010BD0000BD
:102140001A0402400030014070B50446402009499D
:10215000088004F01F01084800F011FAFF2106482A
:1021600000F00DFA054640200249891E08802846E5
:1021700070BD00001A0402400030014010B5172065
:10218000FFF7E2FF044604F0010010BD10B504465D
:102190007D2C09DC05484078A04205D003484470F6
:1021A0002146052000F0D8F810BD0000900900205D
:1021B00010B50446802006490880052221460B20E0
:1021C00000F0E4F880200249891E088010BD00005C
:1021D0001A04024070B506460D4600240F48C6702A
:1021E000857016B944F0080403E0022E01D144F0D2
:1021F0002004032D02D144F0060408E0022D02D190
:1022000044F0040403E0012D01D144F0020444F041
:1022100001042146062000F09FF870BD90090020BF
:1022200010B50446052221460A2000F0AFF8052229
:102230002146102000F0AAF810BD1CB5082100208E
:1022400000F08AF83F21012000F086F803210220E7
:1022500000F082F80321084600F07EF803210420F4
:1022600000F07AF80221052000F076F80E21062011
:1022700000F072F80E21072000F06EF8002108200F
:1022800000F06AF80021092000F066F8F0208DF8CF
:1022900000008DF801008DF802008DF803008DF824
:1022A0000400052269460A2000F070F8F0208DF83D
:1022B00000008DF801008DF802008DF803008DF804
:1022C0000400052269460B2000F060F8F0210C2084
:1022D00000F042F8F0210D2000F03EF8F0210E2031
:1022E00000F03AF8F0210F2000F036F8F0208DF8D9
:1022F00000008DF801008DF802008DF803008DF8C4
:10230000040005226946102000F040F80021112049
:1023100000F022F80021122000F01EF80021132006
:1023200000F01AF80021142000F016F80021152002
:1023300000F012F80021162000F00EF811211720ED
:1023400000F00AF800211C2000F006F800211D20F2
:1023500000F002F81CBD000070B504460D46402098
:102360000849088004F01F0040F02001064800F0F2
:1023700006F92946044800F002F940200149891E67
:10238000088070BD1A0402400030014070B5044658
:102390000D46164640200949088004F01F0040F011
:1023A0002001074800F0EBF832462946044800F0C7
:1023B0002FF940200149891E088070BD1A0402408F
:1023C000003001401CB504464CB905200321002310
:1023D0001A46CDE90010E0210A48FFF777FD012CED
:1023E00009D10520032100231A46CDE90010382128
:1023F0000548FFF76BFD032C03D10521034800F0CE
:10240000BDF81CBD00000240000402400030014045
:102410001CB504464CB90520032100231A46CDE91A
:10242000001064210B48FFF751FD012C0AD1052053
:10243000032100231A46CDE900104FF4E04105487E
:10244000FFF744FD032C03D10521034800F096F863
:102450001CBD000000100240003401401CB50446C1
:1024600054B90520032100231A46CDE900104FF48A
:1024700060711048FFF72AFD012C13D105200321BC
:1024800000231A46CDE90010E1020A48FFF71EFDBD
:102490000520032100231A46CDE90010C02106487B
:1024A000FFF714FD032C03D10521044800F066F862
:1024B0001CBD000000140240001C024000500140FE
:1024C0001CB5044654B90520032100231A46CDE962
:1024D00000104FF4E0410548FFF7F8FC032C03D14E
:1024E0000521034800F04AF81CBD00000018024016
:1024F000005401407CB504460D461C4884420AD174
:1025000000204FF4827120230246CDE900102946B5
:10251000204600F0A5F8164884420AD100204FF466
:10252000827120230246CDE900102946204600F0A2
:1025300097F8104884420AD100204FF4827120237A
:102540000246CDE900102946204600F089F80A48E5
:1025500084420AD100204FF4827120230246CDE943
:1025600000102946204600F07BF87CBD0030014079
:1025700000340140005001400054014070470246C1
:10258000108800F0400008B90020704700BF108993
:1025900000F003000028FAD0108900F08000002825
:1025A000F5D1918100BF108900F003000028FAD016
:1025B000108900F080000028F5D19089C0B2E4E7CE
:1025C00030B50C46058805F0400505B930BD00BFA3
:1025D000058905F00305002DFAD0058905F0800571
:1025E000002DF5D100210FE0655C858100BF0589D4
:1025F00005F00305002DFAD0058905F08005002DB2
:10260000F5D185895554491C9942EDD300BFDDE7CA
:1026100010B50B46048804F0400404B910BD00BF97
:10262000048904F00304002CFAD0048904F0800427
:10263000002CF5D100210EE05C5C848100BF048990
:1026400004F00304002CFAD0048904F08004002C68
:10265000F5D18489491C9142EED300BFDEE700002A
:102660002DE9F04385B004460E4615461F46DDE9C8
:102670000C896846FFF7BEF93C4884420BD13C48C0
:10268000006840F480503A4908603046FFF79AFEEF
:102690000020ADF80400374884420BD1344800686C
:1026A00040F40050324908603046FFF7B1FE002088
:1026B000ADF80400304884420BD12D48006840F446
:1026C00080102B4908603046FFF7C8FE0020ADF8A7
:1026D00004002A4884420BD12548006840F40010C9
:1026E000234908603046FFF7EBFE0020ADF80400F8
:1026F000ADF80C700020ADF80000ADF80E90ADF80C
:1027000002804FF40070ADF80A002DB90020ADF83A
:102710000600ADF8080019E0012D06D10020ADF843
:1027200006000120ADF8080010E0022D06D10220BD
:10273000ADF806000020ADF8080007E0032D05D134
:102740000220ADF806000120ADF80800208820F036
:102750004000208069462046FFF72EF9208840F08F
:102760004000208005B0BDE8F0830000003001404B
:102770004438024000340140005001400054014000
:1027800010B540F22551184800F055F850B340F20A
:102790002551154800F034F8134800F005F91349A5
:1027A000134A12688854124801680068401C104A95
:1027B00010600E48405C4B2814D100200D49086081
:1027C0000D48006802F034FB0A48006838B14FF049
:1027D00080500A490860BFF34F8FBFF36F8F00200E
:1027E0000349086010BD000000480040C4360120C5
:1027F000B8000020B4000020B000002004ED00E08C
:1028000010B50022002340F66A14A14200D100BF97
:102810000A1201249440A3B2DC43048010BD21B10C
:10282000828942F40052828104E082894DF6FF736E
:102830001A408281704770B50246002400230025AB
:10284000002040F66A16B14200D100BFC1F3421524
:1028500001F01F03012606FA03F3012D02D1968928
:10286000334006E0022D02D1168A334001E0968AF9
:1028700033400C12012606FA04F41688344013B1D2
:102880000CB1012000E0002070BDF0B5034600242B
:1028900000260025002040F66A17B94200D100BF8B
:1028A0001846C1F3421401F01F06012707FA06F586
:1028B000012C01D10C3004E0022C01D1103000E0D9
:1028C00014301AB107682F43076002E00768AF436E
:1028D0000760F0BD2DE9FF4705460E460024A146DE
:1028E00000BFA046B08900B100BF2C8A24F4405438
:1028F000F08804432C82AC8941F20C608443B08898
:1029000031890843718908430443AC81AC8A24F4BB
:102910004074B0890443AC826846FEF721FF20482A
:10292000854202D01F48854202D1DDF80C9001E0BB
:10293000DDF80890A88900F4004040B109EBC90017
:1029400000EB091031684900B0FBF1F707E009EB33
:10295000C90000EB091031688900B0FBF1F7642071
:10296000B7FBF0F004012009642101FB1078A8896D
:1029700000F4004040B1322000EBC800B0FBF1F0A1
:1029800000F00700044308E0322000EB0810642147
:10299000B0FBF1F000F00F0004432C81BDE8FF878D
:1029A000001001400014014001468888C0F308006F
:1029B000704710B52DED108BB0EE408AF0EE608AB6
:1029C000044694ED0C0B84ED0A0B94ED0E0B84ED94
:1029D0000C0B84ED0E8B94ED120B84ED100B94ED2B
:1029E000140B84ED120B94ED102BB0EE420AF0EEB6
:1029F000620A94ED082BB0EE421AF0EE621A53EC24
:102A0000102B51EC110B02F03FFE41EC1A0B94ED30
:102A1000122BB0EE420AF0EE620A94ED062BB0EEF5
:102A2000421AF0EE621A53EC102B51EC110B02F02B
:102A30002BFE41EC1C0B94ED0A2BB0EE420AF0EE9B
:102A4000620A94ED042BB0EE421AF0EE621A53ECD7
:102A5000102B51EC110B02F017FE41EC1E0B94ED04
:102A60000E2BB0EE420AF0EE620A94ED042BB0EEAB
:102A7000421AF0EE621A53EC102B51EC110B02F0DB
:102A800003FE41EC1F0B53EC1E2B02F0FBFE41EC4E
:102A90001D0B53EC1C2B02F00BFD41EC1B0B53ECFC
:102AA0001A2B02F0EFFEC4E9140194ED140BB0EE02
:102AB000409AF0EE609AB0EE490AF0EE690ABDEC79
:102AC000108B10BD01EB8102134B03EBC20292EDA0
:102AD000000B80ED000B01EB810203EBC20292EDD3
:102AE000020B80ED020B01EB810203EBC20292EDBF
:102AF000040B80ED040B01EB810203EBC20292EDAB
:102B0000060B80ED060B01EB810203EBC20292ED96
:102B1000080B80ED080B7047E0EF012000B54FF483
:102B20007A60924908609248007AA0B1B3EE092A0F
:102B3000F7EE001A9FED8F1ADFED8F0A8F4890EDA8
:102B4000000AB8EEC00A00F00FFBBCEEC00A8C48C9
:102B500080ED000A15E08648D0ED010AF8EE600A23
:102B6000B0EE600AB3EE092AF7EE001AB3EE031ACC
:102B7000DFED800A00F0F8FABCEEC00A804880ED74
:102B8000000A7B48D0ED000AF8EE600AB0EE600A59
:102B90009FED7C2AF2EE0E1AB3EE031ADFED750AF2
:102BA00000F0E2FABCEEC00A774880ED000A7748F0
:102BB00000887749774A126821F812007648008821
:102BC0007649744A126821F8120072480068401C65
:102BD00070490860084600686B490968884202D35A
:102BE00000206C4908606E480068401C6C49086011
:102BF00008460068C82811D30020086069480068AA
:102C00005F490968084467490860084600686649E2
:102C10000968884202D3002062490860534800686E
:102C200040F6FF71081A00EE900AF8EE600AF0EE26
:102C3000601A5E485B49096830F8110000EE900A9E
:102C4000F8EE600AB0EE600A9FED592A9FED581A1F
:102C5000DFED480A00F088FABCEEC00A554880ED66
:102C6000000A4B484B49096830F8110000EE900A01
:102C7000F8EE600AB0EE600A4E48D0ED000AB8EEF9
:102C8000602AF7EE001A9FED4A1AF7EE000A00F0EC
:102C90006BFABCEEC00A10EE100A3D493D4A1268BC
:102CA00021F812003D483B49096830F8110000EE58
:102CB000900AF8EE600AB0EE600A3E48D0ED000AD5
:102CC000B8EE602AF7EE001A9FED391AF7EE000A07
:102CD00000F04AFABCEEC00A10EE100A81B22F488A
:102CE0002C4A126820F812102848B0F90010284821
:102CF000284A126830F81200084400EE900AF8EEF4
:102D0000E00AB0EE600A9FED2A2ADFED1A1A9FED65
:102D10002A1ADFED180A00F027FABDEEC00A10EEFD
:102D2000100A00B2194908801B48B0F900101B486E
:102D3000184A126830F81200084400EE900AF8EEC3
:102D4000E00AB0EE600A9FED1A2ADFED0A1A9FED45
:102D50001A1ADFED080A00F007FABDEEC00A10EEFD
:102D6000100A00B20C49088000BD00006009002074
:102D7000F8360120000000000000FA446409002039
:102D8000500900200000C8424809002078000020B7
:102D900010E801204C0900207A000020F8EB012007
:102DA0005C09002054090020080900203801002097
:102DB00000F07F455809002000F0FF4500B55A4853
:102DC000007AA0B19FED592ADFED591A9FED591AEB
:102DD000DFED590A594890ED000AB8EEC00A00F03C
:102DE000C3F9BCEEC00A564880ED000A15E04E4813
:102DF000D0ED000AF8EE600AB0EE600A9FED4B2AB3
:102E0000DFED4B1AB3EE031ADFED4A0A00F0ACF91E
:102E1000BCEEC00A4A4880ED000A4348D0ED010AE2
:102E2000F8EE600AB0EE600A9FED462AF1EE041A51
:102E3000B3EE031ADFED3F0A00F096F9424880ED49
:102E4000000A90ED000ADFED410A80EE201A80EDC5
:102E5000001A3F48B0F900003E493F4A126831F974
:102E60001210084400EE100AB8EEC00A3648D0ED41
:102E7000000A20EE200ABDEEC00A10EE100A00B2D1
:102E80003449354A126821F8120008463249096867
:102E900030F9110000EE900AF8EEE00AB0EE600A98
:102EA0009FED2E2AF7EE001A9FED2D1ADFED210A75
:102EB00000F05AF9BDEEC00A10EE100A00B2254922
:102EC000254A126821F8120023480068401C224954
:102ED0000860084600681A490968884202D3002041
:102EE0001D4908601A48B0F900101A481A4A1268B9
:102EF00030F91200084400EE900AF8EEE00AB0EE55
:102F0000600A9FED162ADFED0B1A9FED161ADFED12
:102F1000090A00F029F9BDEEC00A10EE100A00B24D
:102F20000B49088000BD000004370120008890464E
:102F300000007A45000000000000FA446409002007
:102F40002409002000004842280900200000C8424F
:102F500078000020483801202009002000F07F453B
:102F60000080224500F0FF4500B563480068132843
:102F700002D11220604908605F48D0ED000AF8EEE7
:102F8000600AB0EE600A9FED5D2ADFED5D1AB3EED8
:102F9000031ADFED5C0A00F0E7F8BDEEC00A5A48FC
:102FA00080ED000A9FED592ADFED541A9FED531A68
:102FB000DFED570A90ED000AB8EEC00A00F0D4F831
:102FC000BDEEC00A10EE100A00B2524908809FED13
:102FD0004F2ADFED4C1A9FED491ADFED4D0A4A48A2
:102FE00090ED000AB8EEC00A00F0BEF8BDEEC00ACF
:102FF00010EE100A00B2484908804848B0F90000B5
:103000004449B1F90010884205DB4248B0F900009C
:10301000424908800CE04148B0F900003E49B1F94E
:103020000010884204DA3C48B0F900003B490880AF
:103030003B48B0F900003749B1F90010884205DB80
:103040003448B0F90000364908800CE03448B0F943
:1030500000003149B1F90010884204DA2E48B0F975
:1030600000002F4908802D48B0F9000000EE900ABA
:10307000F8EEE00AB0EE600A9FED2A2ADFED2A1A88
:103080002448B0F9000000EE900AB8EEE01A224899
:10309000B0F9000000EE900AF8EEE00A00F064F8E3
:1030A000BDEEC00A10EE100A00B21C4908801C4890
:1030B000B0F9000000EE900AF8EEE00AB0EE600A07
:1030C0009FED182ADFED181A1248B0F9000000EE43
:1030D000900AB8EEE01A1048B0F9000000EE900A2D
:1030E000F8EEE00A00F040F8BDEEC00A10EE100A5B
:1030F00000B20B49088000BD8400002000007A4522
:1031000000401C4500000000300100200000FA448F
:1031100000007A44340100203601002078000020AD
:103120007A00002000806D45000049431CB5012154
:103130000820FEF7DBFA4FF47040009000208DF875
:1031400006008DF8070001208DF8040000208DF89E
:10315000050069460348FEF7AFF8FEF7E9FB00BF3C
:10316000FEE70000000C0240F0EE402A32EEE00ADA
:1031700032EE613A20EE030A71EE603A80EE233AB5
:1031800033EE210A7047000000B59E4800889E4932
:103190009E4A128821F812009D4801889D489B4A4A
:1031A000128820F8121099480088401C974908801E
:1031B00008460088B0F5FA6F01DB002008809648C9
:1031C0000088964908809448D0ED010AF8EE600A1C
:1031D000B0EE600A9FED922AF7EE001AB3EE031AE2
:1031E000DFED900AFFF7C0FFBCEEC00A8E4880ED0D
:1031F000000A8948D0ED020AF8EE600AB0EE600AD3
:103200009FED872AF7EE001AB3EE031ADFED850A69
:10321000FFF7AAFFBCEEC00A844880ED000A7A4896
:103220008349096830F9110000EE900AF8EEE00ACF
:10323000B0EE600A7D48D0ED000AB8EE602AF7EEE5
:10324000001A9FED7C1ADFED770AFFF78DFFBDEEC8
:10325000C00A10EE100A00B26B49754A126821F8D4
:1032600012006C487449096830F9110000EE900AA8
:10327000F8EEE00AB0EE600A6C48D0ED000AB8EE55
:10328000602AF7EE001A9FED6B1ADFED660AFFF772
:103290006BFFBDEEC00A10EE100A00B25D49664A2F
:1032A000126821F812005748B0F9000000EE900AA9
:1032B000F8EEE00AB0EE600A5B48D0ED000AB8EE26
:1032C000602AF7EE001A9FED5B1ADFED560AFFF752
:1032D0004BFFBDEEC00A10EE100A00B2494908804B
:1032E0004B48B0F9000000EE900AF8EEE00AB0EEAC
:1032F000600A4D48D0ED000AB8EE602AF7EE001AD9
:103300009FED4C1ADFED470AFFF72EFFBDEEC00A16
:1033100010EE100A00B23E4908803B484449096853
:1033200030F911003749B1F90010084400EE900A55
:10333000F8EEE00AB0EE600A9FED3E2AF7EE001AC2
:103340009FED3E1ADFED370AFFF70EFFBDEEC00A14
:1033500010EE100A00B22B4908802E483649096841
:1033600030F911002A49B1F90010084400EE900A22
:10337000F8EEE00AB0EE600A9FED2E2AF7EE001A92
:103380009FED2E1ADFED270AFFF7EEFEBDEEC00A15
:1033900010EE100A00B21E4908802048008850B183
:1033A00023480068801C2249086023480068801C6C
:1033B0002149086015E022480068401C2049086047
:1033C0000846006802280CD319480068401C1849B8
:1033D000086019480068401C174908600020184917
:1033E000086013480068B0F5FA6F02D30020104956
:1033F000086011480068B0F5FA6F02D300200E494A
:10340000086000BD78000020D0C801202C090020F1
:103410007A00002070D801201037012044090020D4
:1034200000007A4500000000400900203C0900200F
:103430003009002000F07F453409002000F0FF45EE
:10344000380900202DE9F04105460E461C48076862
:103450001C480068001D00F0FBFD50B919480068C9
:1034600090F82C10012088401749096881431648BC
:103470000160681C38B936B112480168091D13484B
:1034800000F024FE1AE07C190E4800684460BC423B
:1034900007D20C480168091D0D48006800F0FCFDCA
:1034A0000CE008480168091D0A48006800F0F4FDB6
:1034B00009480068844201D207480460BDE8F081F1
:1034C000140000200000002018000020880A0020BE
:1034D00008000020040000203000002010B5044641
:1034E00000F000FE24480068401C2349086023487F
:1034F000006840B9214804600846006801280DD1E1
:1035000000F0BCF90AE01E48006838B91B480068A2
:10351000C06AE16A884201D8184804601948006806
:10352000401C1849086008460068206494F82C1074
:103530000120884014490968084313490860E16A7A
:1035400001EB8101114A02EB8100211D00F0BEFD5B
:1035500000F0F2FD0A48006868B108480068C06AD7
:10356000E16A884207D24FF0805009490860BFF3F2
:103570004F8FBFF36F8F10BD1000002000000020A0
:103580001C0000202C00002018000020D40900207E
:1035900004ED00E010B500F0A5FD10480068D0B9BA
:1035A0000F4800F069FD0F4800F066FD0C480E4919
:1035B00008600C480D49086000220C210A2001F027
:1035C0008DF9064908600846006820B108A1034843
:1035D000006800F03BFE00F0AFFD10BD440000208D
:1035E0009C0A0020B00A00203C000020400000207F
:1035F000546D72510000000070B523E000F0D8FF58
:103600001348006808B9012000E00020054601F0D9
:103610005FFEBDB900F066FD0D48C068C468201D9E
:1036200000F016FD0B480068401E0A4908600A4871
:103630000068401E0849086000F07EFD204600F04A
:1036400060F800BF044800680028D7D170BD0000B2
:10365000740A0020100000200C00002070B5044601
:103660000D46206C70B1216CE0680844E060616830
:10367000E068884201D32068E0602846226CE16857
:10368000FCF772FE70BD2DE9F04104460F46154669
:103690004FF00008A66B206C40B9206860BB6068E2
:1036A00001F066FD80460020606025E07DB9394666
:1036B000226CA068FCF758FE216CA0680844A0604A
:1036C000D4E90110884217D32068A06014E039467D
:1036D000226CE068FCF748FE216CE068401AE0606C
:1036E0002168E068884203D2216C6068401AE0607B
:1036F000022D01D106B1761E701CA0634046BDE8C4
:10370000F08110B50446206B00F034FD204600F037
:1037100031FD10BD0146084A126812680AB901223B
:1037200000E000220A600A6822B9034A1268D268DF
:10373000106800E0002070473C000020094A22F099
:103740000700094A10600022074B5A60074A084BDD
:103750005A6000221A600146044A4A601A460A600A
:1037600070470000CC0A002050000020F82B010018
:103770005800002000BFFFF73FFF064800680128FF
:10378000F9D94FF0805004490860BFF34F8FBFF361
:103790006F8FF0E7D409002004ED00E02DE9F0413F
:1037A00006460D4617469846069C0DB9246000E073
:1037B0002760E66325640121204601F09DF984F825
:1037C0004C80BDE8F0812DE9F05F82460F469046BF
:1037D0009B460A9E0C9C4FEA8801A522206BFCF7B1
:1037E00008FEA8F10100216B01EB800929F007090F
:1037F00009F0070008B9012000E0002050B900BF1F
:10380000502080F31188BFF34F8FBFF36F8F00BF3D
:1038100000BFFEE7002507E0795D04F13400415563
:10382000785D00B902E06D1C0A2DF5D300BF0021C0
:103830003D200155052E00D30426E662A664002033
:10384000E064201D00F025FC04F1180000F021FCCC
:103850002461C6F10500A06164620020206584F83F
:1038600054005A465146484600F0C4FA20600B986E
:1038700008B10B980460BDE8F09F000010B500246B
:1038800007E004EB84010F4A02EB810000F0F4FB37
:10389000641C052CF5D30C4800F0EEFB0B4800F03F
:1038A000EBFB0B4800F0E8FB0A4800F0E5FB0A4898
:1038B00000F0E2FB04480949086004480849086030
:1038C00010BD0000D4090020380A00204C0A002056
:1038D000600A0020740A0020880A002004000020EA
:1038E000080000202DE9F04104460D4616461F460B
:1038F0004FF0000865602461B5420CD8F01BA16947
:10390000884202D34FF0010811E0211D09480068E8
:1039100000F0C2FB0BE0BE4204D2BD4202D34FF026
:10392000010804E0211D0448006800F0B5FB404692
:10393000BDE8F081400000203C00002070B5054645
:1039400000F0D0FBA86B08B9012400E0002400F0CF
:10395000F3FB204670BD70B5054600F0C3FBA86BB5
:10396000E96B884201D1012400E0002400F0E4FB6F
:10397000204670BDF8B505460F4616480068C06879
:10398000C468201D00F064FBE06901281DD1A06916
:1039900041192B463A462046FFF7A4FFA8B1002064
:1039A00003462A4601460090204601F03FFD0646A8
:1039B00056B900BF502080F31188BFF34F8FBFF37B
:1039C0006F8F00BF00BFFEE700BF2046616A8847D7
:1039D000F8BD00003C00002070B586B06AE0039896
:1039E000002867DB059C606908B9012000E0002021
:1039F00010B9201D00F02CFB02A800F0BDF8054610
:103A000003980A2854D2DFE800F009050731334F44
:103A10000608323400BF00BF00BF00BF0498A2698F
:103A2000811803462A462046FFF75CFFE8B120468E
:103A3000616A8847E069012817D100200090049846
:103A4000A169421800231946204601F0EFFC064602
:103A500056B900BF502080F31188BFF34F8FBFF3DA
:103A60006F8F00BF00BFFEE700BF22E000BF20E075
:103A700000BF0498A061A06908B1012000E0002007
:103A800050B900BF502080F31188BFF34F8FBFF3B0
:103A90006F8F00BF00BFFEE7A06941192B462A4681
:103AA0002046FFF71FFF04E0204600F063FB00E024
:103AB00000BF00BF00231A4603A90448006800F0B5
:103AC00039FF00288BD106B070BD000044000020F3
:103AD000F8B505460C4600F06BFD684600F04CF862
:103AE0000646009820BB44B9B54206D801F0F0FB69
:103AF00031462846FFF73EFF1CE03CB10E48006807
:103B0000006808B9012000E000200446A91B2246F5
:103B10000A48006800F0B0FB01F0DAFB50B94FF042
:103B2000805007490860BFF34F8FBFF36F8F01E0EC
:103B300001F0CEFBF8BD0000400000204400002052
:103B400004ED00E00A490968096809B9012100E0AB
:103B5000002121B14FF0FF31064A116006E004490F
:103B60000968C968C868034A416811607047000065
:103B7000040000203000002070B5044601F04EFA29
:103B8000054607480068854204D200F00BF8012082
:103B9000206001E00020206001480560284670BDDB
:103BA0004C0000202DE9F84332E024480068C0684A
:103BB000056822480068C068C468201D00F048FA03
:103BC0002046616A8847E069012821D1A069461929
:103BD000AE4207D966602461211D1848006800F0D4
:103BE0005BFA15E0002003462A4601460090204675
:103BF00001F01CFC074657B900BF502080F3118824
:103C0000BFF34F8FBFF36F8F00BF00BFFEE700BF52
:103C10000A480068006808B9012000E00020002878
:103C2000C3D00648D0F80080054800680349086002
:103C30000348C0F80080BDE8F88300003C00002085
:103C4000400000200E480068401C08B9012000E038
:103C5000002050B900BF502080F31188BFF34F8F70
:103C6000BFF36F8F00BF00BFFEE700BF502080F39F
:103C70001188BFF34F8FBFF36F8F00BF00BFFEE708
:103C80006800002008B500BF6846FFF743FD044602
:103C900020460099FFF71CFFFFF79EFEF4E770B582
:103CA000044600F01FFA94F9455010E0606A08B924
:103CB000012000E0002038B904F1240001F0BCFA32
:103CC00018B100F079FB00E003E0681E45B2002D5A
:103CD000ECDC00BFFF2084F8450000F02DFA00F076
:103CE00001FA94F9445010E0206908B9012000E07D
:103CF000002048B904F1100001F09EFA08B100F06C
:103D00005BFB681E45B200E001E0002DECDC00BF6B
:103D1000FF2084F8440000F00FFA70BD2DE9F04157
:103D200004464FF0000800F043FC2548006820B925
:103D3000FFF704FD01202249086044B1083404F073
:103D4000070020B104F00700C0F108000444002C73
:103D500031D01C4884422ED21B4F3846056801E002
:103D60002F462D686868A04202D228680028F7D143
:103D7000164885421FD0386800F108082868386066
:103D80006868001B102810D92E196868001B706025
:103D90006C6071680C4800E00068026852688A42F2
:103DA000FAD302683260066000BF09496868096892
:103DB000081A0749086001F08BFA4046BDE8F08117
:103DC00064000020F82B0100500000205800002063
:103DD000600000200648006830B10549096801F11B
:103DE0004C00C96C491C0160014800687047000024
:103DF00000000020001F4FF080730360001F21F0BF
:103E000001030360001F054B036014380260001FAC
:103E10006FF002030360203870470000453C000843
:103E20007047000000B57948007AA0B19FED782A6C
:103E3000F3EE0E1A9FED771ADFED770A774890EDD3
:103E4000000AB8EEC00AFFF78FF9BDEEC00A744849
:103E500080ED000A15E06D48D0ED010AF8EE600A29
:103E6000B0EE600A9FED6A2AF3EE0E1AB3EE031A63
:103E7000DFED680AFFF778F9BDEEC00A684880ED0B
:103E8000000A6248D0ED000AF8EE600AB0EE600A5F
:103E90009FED642ADFED641AB3EE031ADFED5D0ACD
:103EA000FFF762F9BDEEC00A604880ED000A604885
:103EB0000068401C5E49086008460068B0F5FA6F6B
:103EC00011DB002008605B48006855490968084418
:103ED000584908600846006857490968884202DB6B
:103EE0000020544908605148006840F6FF71081AE4
:103EF00000EE900AF8EEE00AF0EE601A4F484D49E5
:103F0000096830F8110000EE900AF8EE600AB0EE91
:103F1000600A9FED4B2A9FED4A1ADFED3E0AFFF73C
:103F200023F9BDEEC00A474880ED000A4648B0F9C3
:103F3000000000EE900AF8EEE00AB0EE600A414898
:103F4000D0ED000AB8EEE02AF7EE001A9FED3C1A19
:103F5000F7EE000AFFF708F9BDEEC00A10EE100AEE
:103F600000B2394908803948B0F9000000EE900AE3
:103F7000F8EEE00AB0EE600A3248D0ED000AB8EE82
:103F8000E02AF7EE001A9FED2E1AF7EE000AFFF76F
:103F9000EBF8BDEEC00A10EE100A00B22B49088003
:103FA0002948B0F9000000EE900AF8EEE00AB0EE01
:103FB000600A9FED1C2AF7EE001A9FED211AF7EE1A
:103FC000000AFFF7D1F8BDEEC00A10EE100A00B2E9
:103FD0001D4908801D48B0F9000000EE900AF8EE77
:103FE000E00AB0EE600A9FED0F2AF7EE001A9FED8F
:103FF000141AF7EE000AFFF7B7F8BDEEC00A10EE8C
:10400000100A00B21149088000BD0000EC36012002
:104010000000D743000000000000FA4464090020BB
:104020001C09002000007A45000096441809002071
:104030000C09002010090020080900203801002088
:1040400000F07F4514090020780000207A0000204D
:1040500001460A69D1E901309860D1E9010358604D
:104060005068884201D1886850600020086110685B
:10407000401E10601068704700F1080141604FF069
:10408000FF31816000F10801C16001610021016020
:10409000704700210161704710B502460B685C1C37
:1040A0000CB9106907E002F1080000E040684468BC
:1040B00024689C42FAD944684C604C68A1608860CE
:1040C00041600A611468641C146010BD42684A6053
:1040D00093688B60936859609160086103685B1C0A
:1040E0000360704700BF502080F31188BFF34F8FEB
:1040F000BFF36F8F00BF0E480068401C0C4908607A
:1041000008460068012812D10A480068C0B208B900
:10411000012000E0002050B900BF502080F311883A
:10412000BFF34F8FBFF36F8F00BF00BFFEE7704735
:104130006800002004ED00E00D48006850B900BFA1
:10414000502080F31188BFF34F8FBFF36F8F00BFF4
:1041500000BFFEE706480068401E054908600846A3
:10416000006820B9002080F3118800BF00BF7047AD
:104170006800002070B506463546B6B1083D2C46AD
:1041800000F016FA6168094800E0006802685268A9
:104190008A42FAD3026822600460054960680968AF
:1041A00008440349086001F093F870BD50000020F6
:1041B00060000020064800684FF47A71B0FBF1F00F
:1041C000401E4FF0E0214861072008617047000061
:1041D0007C09002070B5FCF7A3F80446102C16D318
:1041E00004F1E02090F8F05315480078854201DB97
:1041F000012000E0002050B900BF502080F311885A
:10420000BFF34F8FBFF36F8F00BF00BFFEE70D48B6
:10421000006800F4E0600C490968884201D8012078
:1042200000E0002050B900BF502080F31188BFF398
:104230004F8FBFF36F8F00BF00BFFEE770BD000060
:104240006C0000200CED00E0700000200246002011
:104250000BE0084B53F8303033B9064B43F83010BD
:1042600003EBC0035A6002E0401C0828F1D300BFF2
:1042700070470000940900202DE9F04105460E46E4
:1042800017462C46FFF72EFF94F94400401C10B946
:10429000002084F8440094F94500401C10B9002027
:1042A00084F84500FFF748FFA06B28B93A4631462D
:1042B00004F1240000F0A2F82046FFF7F0FCBDE86E
:1042C000F081000070B50546FFF70CFF15B93048C6
:1042D000006800E028460446201DFFF7B9FE78B9C3
:1042E000E06A00EB80002B4951F8200040B994F8B7
:1042F0002C10012088402849096881432648016024
:10430000A06A18B104F11800FFF7A2FE2348006864
:10431000401C224908601E480068844209D1211DC2
:104320001F48FFF7D3FE1F480068401C1D49086066
:1043300009E01D480068401E1B4908602046FFF741
:10434000E0F9FFF7FFFBFFF7F7FE18480068E8B158
:104350000F480068844219D11548006808B9012047
:1043600000E0002050B900BF502080F31188BFF357
:104370004F8FBFF36F8F00BF00BFFEE74FF080503D
:104380000C490860BFF34F8FBFF36F8F70BD000003
:1043900000000020D4090020180000202C0000207C
:1043A000740A00200C000020100000201C000020D7
:1043B0003800002004ED00E001200149086070474A
:1043C0002400002070B504460D4654B900BF5020AB
:1043D00080F31188BFF34F8FBFF36F8F00BF00BF13
:1043E000FEE70548016818312046FFF755FE012118
:1043F0002846FFF727F870BD0000002070B505467D
:104400000E46144655B900BF502080F31188BFF303
:104410004F8FBFF36F8F00BF00BFFEE706480168F4
:1044200018312846FFF752FE0CB14FF0FF362146F7
:104430003046FFF707F870BD0000002070B5054654
:104440002C46002D4BD02649E06A0968C96A88428B
:1044500045D2A06900F0004028B921480068C06A30
:10446000C0F10500A061E16A01EB81011D4A02EB88
:1044700081016069884201D1012000E0002050B331
:10448000201DFFF7E5FD78B9E06A00EB80001549D3
:1044900051F8200040B994F82C10012088401249AE
:1044A00009688143104801600D480068C06AE062F5
:1044B00094F82C10012088400B49096808430A49E8
:1044C0000860E16A01EB8101064A02EB8100211DCF
:1044D000FFF7FCFD03E002480068C06AE06270BDBF
:1044E00000000020D40900201800002050B900BFAF
:1044F000502181F31188BFF34F8FBFF36F8F00BF3F
:1045000000BFFEE70349096801600349096841608B
:104510007047000028000020140000201CB51D4832
:1045200000210B468222CDE900101BA11C4800F09F
:1045300035FD0446012C02D100F04CFF0446012C4D
:1045400015D100BF502080F31188BFF34F8FBFF308
:104550006F8F00BF4FF0FF301249086001201249F1
:10456000086000201149086000F01AF910E0601C92
:1045700008B1012000E0002050B900BF502080F3B6
:104580001188BFF34F8FBFF36F8F00BF00BFFEE7EF
:104590001CBD00003400002049444C4500000000D0
:1045A00075370008300000201C0000201400002097
:1045B00002480068401C014908607047380000202C
:1045C0001D48006818B101201C49086032E0002035
:1045D0001A4908601A480068B0FA80F0C0F11F015B
:1045E00001EB8100174A52F8200008B1012000E0D9
:1045F000002050B900BF502080F31188BFF34F8FC7
:10460000BFF36F8F00BF00BFFEE701EB81020D4BD0
:1046100003EB820042685268426000F1080243687E
:10462000934202D14268526842604268D268064BA7
:104630001A6000BF704700003800002024000020EE
:1046400018000020D40900200000002000B52B48ED
:10465000007998B19FED2A2ADFED2A1A9FED2A1AD8
:10466000DFED2A0A2A4890ED000AB8EEC00AFEF7EC
:104670007BFDBCEEC00A214880ED000A1F48D0ED4A
:10468000000AF8EE600AB0EE602A2248B0F9000095
:1046900000EE900AF8EEE00AB0EE600AF7EE001ABB
:1046A0009FED171ADFED180AFEF75EFDBDEEC00A9A
:1046B00010EE100A00B2174908801048D0ED000A29
:1046C000F8EE600AB0EE602A1348B0F9000000EE80
:1046D000900AF8EEE00AB0EE600AF7EE001A9FEDDD
:1046E000081ADFED090AFEF73FFDBDEEC00A10EE25
:1046F000100A00B20849088000BD000098000020A0
:1047000000F07F4500004842000000000000FA442D
:1047100064090020780000207A00002010B52DEDFB
:10472000048B14211B48FEF7CDF91B49B1F9000099
:1047300000F093FF41EC190B1648B0EE490AF0EE79
:10474000690AFEF736F9B0EE408AF0EE608A51EC65
:10475000180B00F055FF00B20F4908800F49B1F95E
:10476000000000F07AFF41EC190B0A48B0EE490A4C
:10477000F0EE690AFEF71DF9B0EE408AF0EE608AAD
:1047800051EC180B00F03CFF00B204490880BDEC6E
:10479000048B10BDF0370120780000207A00002043
:1047A0001CB5474800684749884201D0012000E015
:1047B000002050B900BF502080F31188BFF34F8F05
:1047C000BFF36F8F00BF00BFFEE73D4800683D4963
:1047D000491E884201D0012000E0002050B900BFEE
:1047E000502080F31188BFF34F8FBFF36F8F00BF4E
:1047F00000BFFEE73449084600780190FF200A46D2
:1048000010700846007800909DF8000000F0F0005D
:104810009DF80020904201D1012000E0002050B915
:1048200000BF502080F31188BFF34F8FBFF36F8F0D
:1048300000BF00BFFEE79DF8000000F05000234AD3
:1048400010700720224A106009E021480068401ECD
:104850001F4A10609DF800004006000E00909DF871
:10486000000000F080008028EFD0194800680002A6
:10487000174A10601046008800F4E0601060124A89
:10488000019810700E482030006840F470000C4908
:10489000203108600846006840F070400860FFF76B
:1048A00089FC00200B490860FBF702FD0A480068FC
:1048B00040F0404008490860FBF7EAFC00201CBDBE
:1048C00000ED00E071C20F4100E400E06C00002048
:1048D000700000206800002034EF00E02DE9F8436C
:1048E00005460E4690460DB1012000E0002050B96B
:1048F00000BF502080F31188BFF34F8FBFF36F8F3D
:1049000000BF00BFFEE70EB9002701E005FB06F778
:1049100007F15000FFF702FA044644B104F15009D0
:1049200043464A46314628460094FEF737FF204664
:10493000BDE8F8832DE9FF4782B005460E461F46C5
:104940004FF0000A2C4654B900BF502080F3118864
:10495000BFF34F8FBFF36F8F00BF00BFFEE70EB9ED
:10496000206C08B9012000E0002050B900BF5020A1
:1049700080F31188BFF34F8FBFF36F8F00BF00BF6D
:10498000FEE700F03BFB08B9049808B9012000E0FD
:10499000002050B900BF502080F31188BFF34F8F23
:1049A000BFF36F8F00BF00BFFEE700BFFFF79AFBAA
:1049B000D4F83890B9F1000F3DD0D4F80C803146CE
:1049C0002046FEF74BFEDFB9A9F10100A063206885
:1049D00010B9FFF7FFF96060206908B9012000E015
:1049E000002010BB04F1100000F026FCE8B14FF0ED
:1049F000805040490860BFF34F8FBFF36F8F14E0C2
:104A0000C4F80C80606A08B9012000E0002060B999
:104A100004F1240000F010FC38B14FF0805035490B
:104A20000860BFF34F8FBFF36F8FFFF785FB012047
:104A300006B0BDE8F087049818B9FFF77DFB0020A9
:104A4000F6E7BAF1000F04D16846FFF74FFD4FF0CB
:104A5000010AFFF771FBFFF7ABFDFFF743FB94F98A
:104A60004400401C10B9002084F8440094F945002B
:104A7000401C10B9002084F84500FFF75DFB04A935
:104A8000684600F045FA40BB2046FEF757FFF0B1FC
:104A9000206830B9FFF726FB6068FFF7CFFCFFF70F
:104AA0004BFB04F124000499FFF78CFC2046FFF730
:104AB000F6F800F00DFC00287FF478AF4FF080503E
:104AC0000C490860BFF34F8FBFF36F8F6EE720462E
:104AD000FFF7E5F800F0FCFB68E72046FFF7DFF89A
:104AE00000F0F6FB2046FEF729FF0028EED000205C
:104AF0009EE7000004ED00E070B505460E462C462A
:104B000054B900BF502080F31188BFF34F8FBFF31B
:104B10006F8F00BF00BFFEE7FFF7E4FAD4E90F1282
:104B2000206801FB020060600020A0632068A06094
:104B3000E06B401E226C216800FB0210E060FF2049
:104B400084F8440084F845009EB9206908B9012022
:104B500000E00020A8B904F1100000F06DFB80B166
:104B60004FF0805009490860BFF34F8FBFF36F8F3C
:104B700007E004F11000FFF77FFA04F12400FFF7CB
:104B80007BFAFFF7D9FA012070BD000004ED00E0C8
:104B90002DE9FF4383B0064688461D464FF00009C5
:104BA000344654B900BF502080F31188BFF34F8FB3
:104BB000BFF36F8F00BF00BFFEE7B8F1000F01D158
:104BC000206C08B9012000E0002050B900BF50203F
:104BD00080F31188BFF34F8FBFF36F8F00BF00BF0B
:104BE000FEE7022D02D1E06B012801D1012000E097
:104BF000002050B900BF502080F31188BFF34F8FC1
:104C0000BFF36F8F00BF00BFFEE700F0F7F908B9F0
:104C1000059808B9012000E0002050B900BF5020DD
:104C200080F31188BFF34F8FBFF36F8F00BF00BFBA
:104C3000FEE700BFFFF756FAA06BE16B884201D395
:104C4000022D28D12A4641462046FEF71CFD074684
:104C5000606A08B9012000E0002068B904F124006E
:104C600000F0EAFA88B14FF0805032490860BFF393
:104C70004F8FBFF36F8F08E03FB14FF080502D4949
:104C80000860BFF34F8FBFF36F8FFFF755FA012016
:104C900007B0BDE8F083059818B9FFF74DFA00207A
:104CA000F6E7B9F1000F04D101A8FFF71FFC4FF0A0
:104CB0000109FFF741FAFFF77BFCFFF713FA94F9BC
:104CC0004400401C10B9002084F8440094F94500C9
:104CD000401C10B9002084F84500FFF72DFA05A903
:104CE00001A800F015F9F0B92046FEF734FEA0B196
:104CF00004F110000599FFF765FB2046FEF7CFFF92
:104D000000F0E6FA002895D14FF08050094908607C
:104D1000BFF34F8FBFF36F8F8CE72046FEF7BFFFC7
:104D200000F0D6FA86E72046FEF7B9FF00F0D0FA89
:104D30000020ADE704ED00E02DE9F05F07468A466C
:104D400090461E463C4654B900BF502080F311885F
:104D5000BFF34F8FBFF36F8F00BF00BFFEE7BAF105
:104D6000000F01D1206C08B9012000E0002050B9EB
:104D700000BF502080F31188BFF34F8FBFF36F8FB8
:104D800000BF00BFFEE7022E02D1E06B012801D177
:104D9000012000E0002050B900BF502080F31188AE
:104DA000BFF34F8FBFF36F8F00BF00BFFEE7FFF76A
:104DB00011FA00BF5021EFF3118081F31188BFF386
:104DC0004F8FBFF36F8F00BF0546A06BE16B88422A
:104DD00001D3022E23D194F945B0324651462046E4
:104DE000FEF751FC0BF1010088B9606A08B9012097
:104DF00000E0002080B904F1240000F01DFA58B151
:104E0000B8F1000F08D00120C8F8000004E00BF151
:104E1000010040B284F845004FF0010901E04FF075
:104E2000000900BF85F3118800BF4846BDE8F09F28
:104E30002DE9F04706460F46344654B900BF5020CE
:104E400080F31188BFF34F8FBFF36F8F00BF00BF98
:104E5000FEE7206C08B9012000E0002050B900BF37
:104E6000502080F31188BFF34F8FBFF36F8F00BFC7
:104E700000BFFEE7206808B9606808B9012000E0BB
:104E8000002050B900BF502080F31188BFF34F8F2E
:104E9000BFF36F8F00BF00BFFEE7FFF79BF900BFB6
:104EA0005021EFF3118081F31188BFF34F8FBFF3CF
:104EB0006F8F00BF0546D4F83890E06B48451ED987
:104EC00094F945A009F10100A0630AF1010070B94D
:104ED000606A08B9012000E0002068B904F12400EC
:104EE00000F0AAF940B13FB10120386004E00AF1B6
:104EF000010040B284F845004FF0010801E04FF096
:104F0000000800BF85F3118800BF4046BDE8F08768
:104F100070B504460D4654B900BF502080F3118887
:104F2000BFF34F8FBFF36F8F00BF00BFFEE755B9D0
:104F300000BF502080F31188BFF34F8FBFF36F8FF6
:104F400000BF00BFFEE7FFF7CDF8124803682868EE
:104F5000401C08B9002619E00F49206809688842FA
:104F600004D06068984201D801260FE06068181AE2
:104F70002968884209D228686168591A401A28604D
:104F80002046FFF7B3FA002600E00126FFF7D4F829
:104F9000304670BD14000020280000202DE9FF4F8E
:104FA00085B0804689461746DDE912ABB800FEF7AA
:104FB000B5FE064656B15820FEF7B0FE04460CB1C9
:104FC000266304E03046FFF7D5F800E000247CB10A
:104FD0000020CDE900ABCDE902403A4649464046C3
:104FE000089BFEF7F0FB2046FEF778FA012501E06A
:104FF0004FF0FF35284609B0BDE8F08F0549096834
:1050000009B9012005E00449096809B9022000E056
:10501000002070471C00002038000020014908686B
:1050200070470000140000202DE9F0414FF0000807
:1050300044480068002877D143480068451C42482E
:10504000056015BB41480068006808B9012000E010
:10505000002050B900BF502080F31188BFF34F8F5C
:10506000BFF36F8F00BF00BFFEE7384807683848BE
:105070000068364908603648076036480068401CBA
:1050800034490860FEF75EFD00BF33480068854282
:105090003CD300BF2D480068006808B9012000E03B
:1050A000002020B14FF0FF302B4908602DE0274849
:1050B0000068C068C4686668B54202D226480660C7
:1050C00023E0201DFEF7C4FFA06A18B104F1180008
:1050D000FEF7BEFF94F82C10012088401F49096894
:1050E00008431E490860E16A01EB81011C4A02EB9A
:1050F0008100211DFEF7EAFF1A49E06A0968C96AC2
:105100008842C7D34FF00108C4E700BF15480068C4
:10511000C06A00EB8000124951F82000012801D933
:105120004FF0010805E0FFE70F480068401C0E49FA
:1051300008600E48006808B14FF001084046BDE81D
:10514000F08100003800002014000020040000203E
:105150000800002028000020300000201800002057
:10516000D40900200000002020000020240000209E
:1051700070B505462C460026002D55D02B480068FA
:10518000844201D1012000E0002050B900BF50202E
:1051900080F31188BFF34F8FBFF36F8F00BF00BF45
:1051A000FEE7E06C50B900BF502080F31188BFF3D8
:1051B0004F8FBFF36F8F00BF00BFFEE7E06C401E54
:1051C000E064A16CE06A88422ED0E06C60BB201DD8
:1051D000FEF73EFF78B9E06A00EB8000144951F811
:1051E000200040B994F82C1001208840114909682A
:1051F000814310480160A06CE062E06AC0F10500E4
:10520000A06194F82C10012088400A4909680843DD
:1052100008490860E16A01EB8101054A02EB81005F
:10522000211DFEF753FF0126304670BD000000200F
:10523000D40900201800002070B50646F068C46844
:1052400054B900BF502080F31188BFF34F8FBFF3D4
:105250006F8F00BF00BFFEE704F11800FEF7F8FEF5
:1052600015480068A8B9201DFEF7F2FE94F82C102E
:105270000120884011490968084310490860E16A23
:1052800001EB81010E4A02EB8100211DFEF71EFF9A
:1052900004E004F118010B48FEF718FF0A49E06A20
:1052A0000968C96A884204D90125012007490860B4
:1052B00000E00025284670BD3800002018000020BE
:1052C000D4090020600A00200000002024000020F3
:1052D00070B5002400263648006850B900BF502041
:1052E00080F31188BFF34F8FBFF36F8F00BF00BFF4
:1052F000FEE7FEF7F7FE2E480068401E2C490860C6
:105300000846006800284FD12A48006800284BD082
:1053100024E02948C068C46804F11800FEF798FE2C
:10532000201DFEF795FE94F82C100120884023499B
:105330000968084321490860E16A01EB8101204ABC
:1053400002EB8100211DFEF7C1FE1E49E06A0968DB
:10535000C96A884202D301201B49086016480068C8
:1053600008B9012000E000200028D2D00CB1FEF7DF
:10537000E9FB1648056865B100BFFFF755FE10B19F
:105380000120114908606D1E002DF6D100200F4943
:1053900008600D48006838B1012630070C490860E4
:1053A000BFF34F8FBFF36F8FFEF7C6FE304670BD61
:1053B0003800002010000020600A002018000020A3
:1053C000D40900200000002024000020200000203C
:1053D00004ED00E01CB50024FEF7DCF80E48006880
:1053E00058B10E48022100234FF48272CDE900101B
:1053F0000BA10D48FFF7D2FD044654B900BF502061
:1054000080F31188BFF34F8FBFF36F8F00BF00BFD2
:10541000FEE720461CBD000044000020480000209C
:10542000546D722053766300853C00082DE9FE43DD
:1054300004460D4616461F46DDF828804FF0000949
:1054400054B900BF502080F31188BFF34F8FBFF3D2
:105450006F8F00BF00BFFEE71448006810B30095CF
:1054600001960294062D15DAFFF7C8FD022808D12F
:105470000023424669460D480068FFF789FB8146D4
:1054800010E000231A46694608480068FFF780FBD1
:10549000814607E000233A46694604480068FFF762
:1054A0004BFC81464846BDE8FE83000044000020D6
:1054B00010B591EA030F48BF83F0004300F1EA8181
:1054C000841A71EB030C05D2121943EB0C03001B79
:1054D00061EB0C01DFF824E14FEA1154A4EB135CFB
:1054E0001EEA430F18BF9EEA445F73D023EA0E03FF
:1054F000DCF1200E21EA045143F4801332D322FA66
:105500000CFE10EB0E0023FA0CFE41EB0E01CCF169
:10551000200E03FA0EFE10EB0E0051F10001B1F562
:10552000801FCCF1200E32D201EB045112FA0EF2A0
:10553000BDE8104058BF7047401C38BF5FEA4202C8
:1055400018BF7047002814BF20F0010041F100018E
:105550004FEA410313F5001F38BF7047A1F1C04166
:1055600000F08AB9012A43EB0302ACF1200CDCF114
:105570001F0E32BF4FF0000E23FA0CF310EB0300A6
:1055800041EB0451B4EB115FD0D0A1EB045101F514
:10559000801149085FEA300001EB04510ED350F14D
:1055A000000038BF12FA0EFE08D1BDE81040C9E76E
:1055B000401C38BF5FEA4202CAD1C3E7BDE81040D1
:1055C0004FEA410313F5001F38BF7047A1F1C041F6
:1055D00000F052B99EEA445F08D011EA5E0FBDE8C0
:1055E000104004BF01F0004100207047BDE81040AA
:1055F00070B500F0F3F800BF64FBBE3E0000E0FFB2
:105600004FEA1153A3F58063D3F11E03A8BFD3F172
:10561000200C08DB4FF0004242EAC12252EA50520D
:1056200032FA03F0704709420BD4102BC4BF00209C
:10563000704703F5787CBCF1FF3F05D04FF0FF3099
:1056400070474FF00000704770B500F0C7F800BF1A
:105650004992248000207047F0E710F0004248BFD4
:105660004042B0FA80F310FA03F10AD0C3F11D03EF
:1056700003F580634FEA415002EB035202EBD12164
:1056800070474FF000007047DFF848C170B51CEA62
:10569000111E1EBF1CEA13159EEA0C0F95EA0C0F93
:1056A00000F06F8081EA030423EA4C134EEAD47EB3
:1056B00021EA4C1141F4801143F48013AE44A1FB64
:1056C000024CA0FB0365AEF17F7E361955EB0C054D
:1056D000A1FB034C4CF10003A0FB021C16EB0C06D3
:1056E000654153F10003094218BF46F0010613F467
:1056F000007F0BD14FEA03314FEA0530340341EA12
:10570000155140EA16506FF003020AE04FEAC32138
:105710004FEAC520F40241EA555140EA56506FF075
:10572000020202EB2E4201EB025585EACE710AD04D
:105730005FEA440C18BF24F0004450F1000041F12E
:10574000000120EAD47040F2FE7C624500D270BDB8
:10575000A84214BF4FF080444FF04044002E08BFD1
:105760000024BEF1806FA8BFA1F1C041BDE8704028
:1057700080F282804FF0000001F1C04101F0004151
:1057800070479EEA0C0F0CEA131518BF95EA0C0F30
:1057900006D04FF0000081EA030E0EF0004170BD0C
:1057A00000F01CF88900013E00F007B800F009B8CD
:1057B0004FEA430C5FEA5C5C08D081EA030100F029
:1057C0005BB84FEA410C5FEA5C5CF6D14FF0000039
:1057D000014970470000FF070000F87F0EF1020E3C
:1057E0002EF0030E5EF8046B364205D4012A43EB1B
:1057F000030515F5001F12D8012841EB010C1CF51B
:10580000001F0CD80ED14FEAD17C15F5001F0CEB10
:105810004C0C0CF1020C08BF4CEBD37C04E04FF0B5
:10582000080C01E04FEAD37C0CEB4C0526FA05F698
:1058300006F00706B6F1040C06D20EEB860CBDE8A6
:1058400070404CF0010C6047DFE80CF0090B0202DD
:105850004FF000414FF00000A1F5002170BD194646
:105860001046012851EB010418BFD4F5001484BF81
:10587000002001F0004170BD0808A0F500114FEABA
:105880003101704710B591EA030F48BF83F0004320
:105890003FF516AE841A71EB030C07D212198CF087
:1058A000004C43EB0C03001B61EB0C01DFF8A4E19F
:1058B0004FEA1154A4EB135C1EEA430F18BF9EEA93
:1058C000445F00F0B08023EA6E03524221EA0451A3
:1058D000C3EB6E0338BF5B1EDCF1200E25D322FA2A
:1058E0000CFE10EB0E0043FA0CFE41EB0E01CCF166
:1058F000200E03FA0EFE10EB0E0051F10001CCF168
:10590000200E29D412FA0EF201EB0451BDE810402A
:1059100058BF7047401C1CBFB2F1004F70470028B1
:105920000CBF491C20F00100704712EB020E43EB44
:10593000030218BF4FF0010E4EEA4202ACF1200CF8
:10594000DCF11E0E54D943FA0CFE10EB0E0051F19F
:10595000FF31CCF11E0ED5D50EF1010E12FA0EFE5E
:10596000404141EB010101EB445C5FEA5C5C10D912
:1059700010EBDE7001EB045138BFBEF1004FBDE803
:10598000104018BF704700280CBF491C20F00100D0
:10599000704730D24FEAD42C11F5001124F4006482
:1059A0001BD0B1FA81F20B3AA41AA41ED2F1200343
:1059B000914030FA03F31943904001EBCC71002C75
:1059C00001EB0451BDE81040A8BF704701F1C04190
:1059D0004FF0000001F000417047B0FA80F310FA78
:1059E00003F100D110BDE41A173C4805C90AE4E7E9
:1059F00001EB045110BD491001EB0451BDE810400A
:105A00004FEA300002E04FF0000170474A0008BF43
:105A10000042F8D0B2F5001F28BF704701F00041E6
:105A20004FF0000070479EEA445F07D011EA5E0F16
:105A3000BDE8104004BF002100207047BDE81040C1
:105A400070B5FFF7CBFE00BF40DFF63E83F00041AC
:105A5000104670470000E0FF4FF04070E1EE100A82
:105A600070470000845A00080000002094090000DC
:105A7000C4010008E06100089409002094F40100CA
:105A800028020008025D00013004F82B010812AA68
:105A9000010275000122F00122E70501495500FFCE
:105AA00000080C0819082608330840084D085A0851
:105AB0006608730880088D089A08A708B308C0080C
:105AC000CD08DA08E708F30800090D091A092609C4
:105AD000330940094C095909660973097F098C0982
